{
  "contractName": "Hourglass",
  "abi": [
    {
      "constant": true,
      "inputs": [],
      "name": "name",
      "outputs": [
        {
          "name": "",
          "type": "string"
        }
      ],
      "payable": false,
      "stateMutability": "view",
      "type": "function"
    },
    {
      "constant": true,
      "inputs": [],
      "name": "onlyAmbassadors",
      "outputs": [
        {
          "name": "",
          "type": "bool"
        }
      ],
      "payable": false,
      "stateMutability": "view",
      "type": "function"
    },
    {
      "constant": true,
      "inputs": [],
      "name": "decimals",
      "outputs": [
        {
          "name": "",
          "type": "uint8"
        }
      ],
      "payable": false,
      "stateMutability": "view",
      "type": "function"
    },
    {
      "constant": true,
      "inputs": [
        {
          "name": "",
          "type": "bytes32"
        }
      ],
      "name": "administrators",
      "outputs": [
        {
          "name": "",
          "type": "bool"
        }
      ],
      "payable": false,
      "stateMutability": "view",
      "type": "function"
    },
    {
      "constant": true,
      "inputs": [],
      "name": "stakingRequirement",
      "outputs": [
        {
          "name": "",
          "type": "uint256"
        }
      ],
      "payable": false,
      "stateMutability": "view",
      "type": "function"
    },
    {
      "constant": true,
      "inputs": [],
      "name": "symbol",
      "outputs": [
        {
          "name": "",
          "type": "string"
        }
      ],
      "payable": false,
      "stateMutability": "view",
      "type": "function"
    },
    {
      "inputs": [],
      "payable": false,
      "stateMutability": "nonpayable",
      "type": "constructor"
    },
    {
      "payable": true,
      "stateMutability": "payable",
      "type": "fallback"
    },
    {
      "anonymous": false,
      "inputs": [
        {
          "indexed": true,
          "name": "customerAddress",
          "type": "address"
        },
        {
          "indexed": false,
          "name": "incomingEthereum",
          "type": "uint256"
        },
        {
          "indexed": false,
          "name": "tokensMinted",
          "type": "uint256"
        },
        {
          "indexed": true,
          "name": "referredBy",
          "type": "address"
        }
      ],
      "name": "onTokenPurchase",
      "type": "event"
    },
    {
      "anonymous": false,
      "inputs": [
        {
          "indexed": true,
          "name": "customerAddress",
          "type": "address"
        },
        {
          "indexed": false,
          "name": "tokensBurned",
          "type": "uint256"
        },
        {
          "indexed": false,
          "name": "ethereumEarned",
          "type": "uint256"
        }
      ],
      "name": "onTokenSell",
      "type": "event"
    },
    {
      "anonymous": false,
      "inputs": [
        {
          "indexed": true,
          "name": "customerAddress",
          "type": "address"
        },
        {
          "indexed": false,
          "name": "ethereumReinvested",
          "type": "uint256"
        },
        {
          "indexed": false,
          "name": "tokensMinted",
          "type": "uint256"
        }
      ],
      "name": "onReinvestment",
      "type": "event"
    },
    {
      "anonymous": false,
      "inputs": [
        {
          "indexed": true,
          "name": "customerAddress",
          "type": "address"
        },
        {
          "indexed": false,
          "name": "ethereumWithdrawn",
          "type": "uint256"
        }
      ],
      "name": "onWithdraw",
      "type": "event"
    },
    {
      "anonymous": false,
      "inputs": [
        {
          "indexed": true,
          "name": "from",
          "type": "address"
        },
        {
          "indexed": true,
          "name": "to",
          "type": "address"
        },
        {
          "indexed": false,
          "name": "tokens",
          "type": "uint256"
        }
      ],
      "name": "Transfer",
      "type": "event"
    },
    {
      "constant": false,
      "inputs": [
        {
          "name": "_referredBy",
          "type": "address"
        }
      ],
      "name": "buy",
      "outputs": [
        {
          "name": "",
          "type": "uint256"
        }
      ],
      "payable": true,
      "stateMutability": "payable",
      "type": "function"
    },
    {
      "constant": false,
      "inputs": [],
      "name": "reinvest",
      "outputs": [],
      "payable": false,
      "stateMutability": "nonpayable",
      "type": "function"
    },
    {
      "constant": false,
      "inputs": [],
      "name": "exit",
      "outputs": [],
      "payable": false,
      "stateMutability": "nonpayable",
      "type": "function"
    },
    {
      "constant": false,
      "inputs": [],
      "name": "withdraw",
      "outputs": [],
      "payable": false,
      "stateMutability": "nonpayable",
      "type": "function"
    },
    {
      "constant": false,
      "inputs": [
        {
          "name": "_amountOfTokens",
          "type": "uint256"
        }
      ],
      "name": "sell",
      "outputs": [],
      "payable": false,
      "stateMutability": "nonpayable",
      "type": "function"
    },
    {
      "constant": false,
      "inputs": [
        {
          "name": "_toAddress",
          "type": "address"
        },
        {
          "name": "_amountOfTokens",
          "type": "uint256"
        }
      ],
      "name": "transfer",
      "outputs": [
        {
          "name": "",
          "type": "bool"
        }
      ],
      "payable": false,
      "stateMutability": "nonpayable",
      "type": "function"
    },
    {
      "constant": false,
      "inputs": [],
      "name": "disableInitialStage",
      "outputs": [],
      "payable": false,
      "stateMutability": "nonpayable",
      "type": "function"
    },
    {
      "constant": false,
      "inputs": [
        {
          "name": "_identifier",
          "type": "bytes32"
        },
        {
          "name": "_status",
          "type": "bool"
        }
      ],
      "name": "setAdministrator",
      "outputs": [],
      "payable": false,
      "stateMutability": "nonpayable",
      "type": "function"
    },
    {
      "constant": false,
      "inputs": [
        {
          "name": "_amountOfTokens",
          "type": "uint256"
        }
      ],
      "name": "setStakingRequirement",
      "outputs": [],
      "payable": false,
      "stateMutability": "nonpayable",
      "type": "function"
    },
    {
      "constant": false,
      "inputs": [
        {
          "name": "_name",
          "type": "string"
        }
      ],
      "name": "setName",
      "outputs": [],
      "payable": false,
      "stateMutability": "nonpayable",
      "type": "function"
    },
    {
      "constant": false,
      "inputs": [
        {
          "name": "_symbol",
          "type": "string"
        }
      ],
      "name": "setSymbol",
      "outputs": [],
      "payable": false,
      "stateMutability": "nonpayable",
      "type": "function"
    },
    {
      "constant": true,
      "inputs": [],
      "name": "totalEthereumBalance",
      "outputs": [
        {
          "name": "",
          "type": "uint256"
        }
      ],
      "payable": false,
      "stateMutability": "view",
      "type": "function"
    },
    {
      "constant": true,
      "inputs": [],
      "name": "totalSupply",
      "outputs": [
        {
          "name": "",
          "type": "uint256"
        }
      ],
      "payable": false,
      "stateMutability": "view",
      "type": "function"
    },
    {
      "constant": true,
      "inputs": [],
      "name": "myTokens",
      "outputs": [
        {
          "name": "",
          "type": "uint256"
        }
      ],
      "payable": false,
      "stateMutability": "view",
      "type": "function"
    },
    {
      "constant": true,
      "inputs": [
        {
          "name": "_includeReferralBonus",
          "type": "bool"
        }
      ],
      "name": "myDividends",
      "outputs": [
        {
          "name": "",
          "type": "uint256"
        }
      ],
      "payable": false,
      "stateMutability": "view",
      "type": "function"
    },
    {
      "constant": true,
      "inputs": [
        {
          "name": "_customerAddress",
          "type": "address"
        }
      ],
      "name": "balanceOf",
      "outputs": [
        {
          "name": "",
          "type": "uint256"
        }
      ],
      "payable": false,
      "stateMutability": "view",
      "type": "function"
    },
    {
      "constant": true,
      "inputs": [
        {
          "name": "_customerAddress",
          "type": "address"
        }
      ],
      "name": "dividendsOf",
      "outputs": [
        {
          "name": "",
          "type": "uint256"
        }
      ],
      "payable": false,
      "stateMutability": "view",
      "type": "function"
    },
    {
      "constant": true,
      "inputs": [],
      "name": "sellPrice",
      "outputs": [
        {
          "name": "",
          "type": "uint256"
        }
      ],
      "payable": false,
      "stateMutability": "view",
      "type": "function"
    },
    {
      "constant": true,
      "inputs": [],
      "name": "buyPrice",
      "outputs": [
        {
          "name": "",
          "type": "uint256"
        }
      ],
      "payable": false,
      "stateMutability": "view",
      "type": "function"
    },
    {
      "constant": true,
      "inputs": [
        {
          "name": "_ethereumToSpend",
          "type": "uint256"
        }
      ],
      "name": "calculateTokensReceived",
      "outputs": [
        {
          "name": "",
          "type": "uint256"
        }
      ],
      "payable": false,
      "stateMutability": "view",
      "type": "function"
    },
    {
      "constant": true,
      "inputs": [
        {
          "name": "_tokensToSell",
          "type": "uint256"
        }
      ],
      "name": "calculateEthereumReceived",
      "outputs": [
        {
          "name": "",
          "type": "uint256"
        }
      ],
      "payable": false,
      "stateMutability": "view",
      "type": "function"
    }
  ],
  "bytecode": "0x60c0604052600660808190527f506f77483344000000000000000000000000000000000000000000000000000060a0908152620000409160009190620004e2565b506040805180820190915260038082527f503344000000000000000000000000000000000000000000000000000000000060209092019182526200008791600191620004e2565b5068056bc75e2d631000006002556000600855600b805460ff19166001179055348015620000b457600080fd5b507f3aa5889d466061262b782fcf0b3e070190660f564317c1fcea2de1999c51e3a78054600160ff19918216811790925560036020527f5a4e78ceb578a28a4aa2bd9e855e5119db1b3565f76dbcdd61a839e91a736c5a80548216831790557f19daf194d7e843b4554b862822d5770209d2389cf7dc7be19189e93e4f2c210f80548216831790557f97fbe54e7b8748d27985cebe8f765ef5997bede7d48dabb9edb245a51c9e5a5880548216831790557f98194d65d58ee883e0a71ad34c371def4dba1385fdad6dc2b0c4417719833b2680548216831790557fb25f44b6691a70fa71d950b646354856b1077fdca61ce8f720b0506f5b8c943980548216831790557f3842078e3288834a23d73cdba345a898974e4afe60001666a11d029381cc4aa680548216831790557fab5ada39a35b216a4651f3400c2ffb1dead41e8cad7ddfdd12ee139a848d46f880548216831790557f4e0228cc24f8bd8b93c53b6725da40ed8a091ec0a59ff0cd2cc2dd7778c3470980548216831790557f9ed6a5d8cc287453aadafcf658af742379186f8e6f5e03b8ca16a5be81404ca580548216831790557fc77675b631b7343617ce2d0aac9fb0603349427129b6822c64174e883c713ec380548216831790557f28a34fa998cdfbed31d410bb706d7d00cd224708cf6b62cd2ad29e494d307f2680548216831790557f9ca87be9caf86022c7460822fa35d57396e5fc5f88a4d487a1158764af9bbe8b80548216831790557f8d9a98e7f948c089886165e0cb3b0b2e592053374a86a8e697c0b5c756409d1c80548216831790557f1c55d299ca2cde437210518900c54997bb7b2642cb5488e5cd15cf7f3660560080548216831790557f969b3597aeedd6e315a29719eb2ea089eae406f0b7ef5704d0f688e13f2a6b5a80548216831790557fa3c13ec9d3466dbfd902e5e6289198e4bc6de487f207c7e51b21150979a7766f80548216831790557f437d246255ea612b875afc15522f93bd0e951164babc9d396c141e604d5d3f1380548216831790557f78947d42ed56e402e4b6e5be5a40a6eeda83977ef24ff45849d8b8e9a772947980548216831790557f5bb8a42aed3532514e1733604f04913ae88d64643c083ef8533a096afd1cb79680548216831790557f18d054f4c5212cbe4695eadf94d50305224d852ff40d892b918d1670ae3f8a2e80548216831790557f97a1315f54ba10a93e42946b7da8f2bbece48758368f1ce4b02195db5ca7aba180548216831790557fdf40cf4404ab725e1594827a78236ee9328bf6e709e675f5260e8ff410bd0b5380548216831790557f63e9866ed73313fca5a8559571f55f812bba24c2620498d54c3e9a5f484e95e1805482168317905573147fc6b04c95bce47d013c8d7a200ee4343236696000527f68539091a7b4a2d10f3191729c402a2a4d8ea1d3e9c986e602d60fa822414de18054909116909117905562000587565b828054600181600116156101000203166002900490600052602060002090601f016020900481019282601f106200052557805160ff191683800117855562000555565b8280016001018555821562000555579182015b828111156200055557825182559160200191906001019062000538565b506200056392915062000567565b5090565b6200058491905b808211156200056357600081556001016200056e565b90565b61172d80620005976000396000f30060806040526004361061015d5763ffffffff7c010000000000000000000000000000000000000000000000000000000060003504166265318b811461016b57806306fdde031461019e57806310d0ffdd1461022857806318160ddd14610240578063226093731461025557806327defa1f1461026d578063313ce56714610296578063392efb52146102c15780633ccfd60b146102d95780634b750334146102f057806356d399e814610305578063688abbf71461031a5780636b2f46321461033457806370a08231146103495780638328b6101461036a5780638620410b1461038257806389135ae914610397578063949e8acd146103b457806395d89b41146103c9578063a8e04f34146103de578063a9059cbb146103f3578063b84c824614610417578063c47f002714610470578063e4849b32146104c9578063e9fad8ee146104e1578063f088d547146104f6578063fdb5a03e1461050a575b61016834600061051f565b50005b34801561017757600080fd5b5061018c600160a060020a0360043516610af5565b60408051918252519081900360200190f35b3480156101aa57600080fd5b506101b3610b30565b6040805160208082528351818301528351919283929083019185019080838360005b838110156101ed5781810151838201526020016101d5565b50505050905090810190601f16801561021a5780820380516001836020036101000a031916815260200191505b509250505060405180910390f35b34801561023457600080fd5b5061018c600435610bbe565b34801561024c57600080fd5b5061018c610bee565b34801561026157600080fd5b5061018c600435610bf5565b34801561027957600080fd5b50610282610c2e565b604080519115158252519081900360200190f35b3480156102a257600080fd5b506102ab610c37565b6040805160ff9092168252519081900360200190f35b3480156102cd57600080fd5b50610282600435610c3c565b3480156102e557600080fd5b506102ee610c51565b005b3480156102fc57600080fd5b5061018c610d24565b34801561031157600080fd5b5061018c610d78565b34801561032657600080fd5b5061018c6004351515610d7e565b34801561034057600080fd5b5061018c610dc1565b34801561035557600080fd5b5061018c600160a060020a0360043516610dc6565b34801561037657600080fd5b506102ee600435610de1565b34801561038e57600080fd5b5061018c610e28565b3480156103a357600080fd5b506102ee6004356024351515610e70565b3480156103c057600080fd5b5061018c610ed2565b3480156103d557600080fd5b506101b3610ee5565b3480156103ea57600080fd5b506102ee610f3f565b3480156103ff57600080fd5b50610282600160a060020a0360043516602435610f8d565b34801561042357600080fd5b506040805160206004803580820135601f81018490048402850184019095528484526102ee9436949293602493928401919081908401838280828437509497506111479650505050505050565b34801561047c57600080fd5b506040805160206004803580820135601f81018490048402850184019095528484526102ee9436949293602493928401919081908401838280828437509497506111a09650505050505050565b3480156104d557600080fd5b506102ee6004356111f4565b3480156104ed57600080fd5b506102ee611345565b61018c600160a060020a0360043516611372565b34801561051657600080fd5b506102ee61137e565b60008060008060008060008060008a6000339050600b60009054906101000a900460ff16801561056157506801158e460913d000008261055d610dc1565b0311155b1561086e57600160a060020a03811660009081526003602052604090205460ff16151560011480156105b65750600160a060020a038116600090815260076020526040902054670de0b6b3a764000090830111155b15156105c157600080fd5b600160a060020a0381166000908152600760205260409020546105e49083611434565b600160a060020a03821660009081526007602052604090205533995061060b8d600a6114ac565b98506106188960036114ac565b975061062489896114c3565b96506106308d8a6114c3565b955061063b8661153a565b9450680100000000000000008702935060008511801561066557506008546106638682611434565b115b151561067057600080fd5b600160a060020a038c161580159061069a575089600160a060020a03168c600160a060020a031614155b80156106c05750600254600160a060020a038d1660009081526004602052604090205410155b1561070657600160a060020a038c166000908152600560205260409020546106e89089611434565b600160a060020a038d16600090815260056020526040902055610721565b6107108789611434565b965068010000000000000000870293505b600060085411156107855761073860085486611434565b600881905568010000000000000000880281151561075257fe5b6009805492909104909101905560085468010000000000000000880281151561077757fe5b04850284038403935061078b565b60088590555b600160a060020a038a166000908152600460205260409020546107ae9086611434565b600460008c600160a060020a0316600160a060020a031681526020019081526020016000208190555083856009540203925082600660008c600160a060020a0316600160a060020a03168152602001908152602001600020600082825401925050819055508b600160a060020a03168a600160a060020a03167f022c0d992e4d873a3748436d960d5140c1f9721cf73f7ca5ec679d3d9f4fe2d58f88604051808381526020018281526020019250505060405180910390a3849a50610ae5565b600b805460ff191690553399506108868d600a6114ac565b98506108938960036114ac565b975061089f89896114c3565b96506108ab8d8a6114c3565b95506108b68661153a565b945068010000000000000000870293506000851180156108e057506008546108de8682611434565b115b15156108eb57600080fd5b600160a060020a038c1615801590610915575089600160a060020a03168c600160a060020a031614155b801561093b5750600254600160a060020a038d1660009081526004602052604090205410155b1561098157600160a060020a038c166000908152600560205260409020546109639089611434565b600160a060020a038d1660009081526005602052604090205561099c565b61098b8789611434565b965068010000000000000000870293505b60006008541115610a00576109b360085486611434565b60088190556801000000000000000088028115156109cd57fe5b600980549290910490910190556008546801000000000000000088028115156109f257fe5b048502840384039350610a06565b60088590555b600160a060020a038a16600090815260046020526040902054610a299086611434565b600460008c600160a060020a0316600160a060020a031681526020019081526020016000208190555083856009540203925082600660008c600160a060020a0316600160a060020a03168152602001908152602001600020600082825401925050819055508b600160a060020a03168a600160a060020a03167f022c0d992e4d873a3748436d960d5140c1f9721cf73f7ca5ec679d3d9f4fe2d58f88604051808381526020018281526020019250505060405180910390a3849a505b5050505050505050505092915050565b600160a060020a0316600090815260066020908152604080832054600490925290912054600954680100000000000000009102919091030490565b6000805460408051602060026001851615610100026000190190941693909304601f81018490048402820184019092528181529291830182828015610bb65780601f10610b8b57610100808354040283529160200191610bb6565b820191906000526020600020905b815481529060010190602001808311610b9957829003601f168201915b505050505081565b6000808080610bce85600a6114ac565b9250610bda85846114c3565b9150610be58261153a565b95945050505050565b6008545b90565b6000806000806008548511151515610c0c57600080fd5b610c15856115d2565b9250610c2283600a6114ac565b9150610be583836114c3565b600b5460ff1681565b601281565b600a6020526000908152604090205460ff1681565b6000806000610c606001610d7e565b11610c6a57600080fd5b339150610c776000610d7e565b600160a060020a038316600081815260066020908152604080832080546801000000000000000087020190556005909152808220805490839055905193019350909183156108fc0291849190818181858888f19350505050158015610ce0573d6000803e3d6000fd5b50604080518281529051600160a060020a038416917fccad973dcd043c7d680389db4378bd6b9775db7124092e9e0422c9e46d7985dc919081900360200190a25050565b60008060008060085460001415610d42576414f46b04009350610d72565b610d53670de0b6b3a76400006115d2565b9250610d6083600a6114ac565b9150610d6c83836114c3565b90508093505b50505090565b60025481565b60003382610d9457610d8f81610af5565b610db8565b600160a060020a038116600090815260056020526040902054610db682610af5565b015b91505b50919050565b303190565b600160a060020a031660009081526004602052604090205490565b604080516c010000000000000000000000003390810282528251918290036014019091206000908152600a602052919091205460ff161515610e2257600080fd5b50600255565b60008060008060085460001415610e465764199c82cc009350610d72565b610e57670de0b6b3a76400006115d2565b9250610e6483600a6114ac565b9150610d6c8383611434565b604080516c010000000000000000000000003390810282528251918290036014019091206000908152600a602052919091205460ff161515610eb157600080fd5b506000918252600a6020526040909120805460ff1916911515919091179055565b600033610ede81610dc6565b91505b5090565b60018054604080516020600284861615610100026000190190941693909304601f81018490048402820184019092528181529291830182828015610bb65780601f10610b8b57610100808354040283529160200191610bb6565b604080516c010000000000000000000000003390810282528251918290036014019091206000908152600a602052919091205460ff161515610f8057600080fd5b50600b805460ff19169055565b600080600080600080610f9e610ed2565b11610fa857600080fd5b600b5433945060ff16158015610fd65750600160a060020a0384166000908152600460205260409020548611155b1515610fe157600080fd5b6000610fed6001610d7e565b1115610ffb57610ffb610c51565b61100686600a6114ac565b925061101286846114c3565b915061101d836115d2565b905061102b600854846114c3565b600855600160a060020a03841660009081526004602052604090205461105190876114c3565b600160a060020a0380861660009081526004602052604080822093909355908916815220546110809083611434565b600160a060020a0388811660008181526004602090815260408083209590955560098054948a16835260069091528482208054948c029094039093558254918152929092208054928502909201909155546008546110f491906801000000000000000084028115156110ee57fe5b04611434565b600955604080518381529051600160a060020a03808a1692908716917fddf252ad1be2c89b69c2b068fc378daa952ba7f163c4a11628f55a4df523b3ef9181900360200190a35060019695505050505050565b604080516c010000000000000000000000003390810282528251918290036014019091206000908152600a602052919091205460ff16151561118857600080fd5b815161119b906001906020850190611673565b505050565b604080516c010000000000000000000000003390810282528251918290036014019091206000908152600a602052919091205460ff1615156111e157600080fd5b815161119b906000906020850190611673565b6000806000806000806000611207610ed2565b1161121157600080fd5b3360008181526004602052604090205490965087111561123057600080fd5b86945061123c856115d2565b935061124984600a6114ac565b925061125584846114c3565b9150611263600854866114c3565b600855600160a060020a03861660009081526004602052604090205461128990866114c3565b600160a060020a038716600090815260046020908152604080832093909355600954600690915291812080549288026801000000000000000086020192839003905560085491925010156112f9576112f56009546008546801000000000000000086028115156110ee57fe5b6009555b60408051868152602081018490528151600160a060020a038916927fc4823739c5787d2ca17e404aa47d5569ae71dfb49cbf21b3f6152ed238a31139928290030190a250505050505050565b336000818152600460205260408120549081111561136657611366816111f4565b61136e610c51565b5050565b6000610dbb348361051f565b60008060008061138e6001610d7e565b1161139857600080fd5b6113a26000610d7e565b336000818152600660209081526040808320805468010000000000000000870201905560059091528120805490829055909201945092506113e490849061051f565b905081600160a060020a03167fbe339fc14b041c2b0e0f3dd2cd325d0c3668b78378001e53160eab36153264588483604051808381526020018281526020019250505060405180910390a2505050565b818101828110156114a657604080517f08c379a000000000000000000000000000000000000000000000000000000000815260206004820152601360248201527f536166654d61746820616464206661696c656400000000000000000000000000604482015290519081900360640190fd5b92915050565b60008082848115156114ba57fe5b04949350505050565b60008282111561153457604080517f08c379a000000000000000000000000000000000000000000000000000000000815260206004820152601360248201527f536166654d61746820737562206661696c656400000000000000000000000000604482015290519081900360640190fd5b50900390565b6008546000906c01431e0fae6d7217caa00000009082906402540be4006115bf6115b9730380d4bd8a8678c1bb542c80deb4800000000000880268056bc75e2d631000006002860a02017005e0a1fd2712875988becaad0000000000850201780197d4df19d605767337e9f14d3eec8920e4000000000000000161163e565b856114c3565b8115156115c857fe5b0403949350505050565b600854600090670de0b6b3a764000083810191810190839061162b6414f46b04008285046402540be40002018702600283670de0b6b3a763ffff1982890a8b900301046402540be4000281151561162557fe5b046114c3565b81151561163457fe5b0495945050505050565b80600260018201045b81811015610dbb57809150600281828581151561166057fe5b040181151561166b57fe5b049050611647565b828054600181600116156101000203166002900490600052602060002090601f016020900481019282601f106116b457805160ff19168380011785556116e1565b828001600101855582156116e1579182015b828111156116e15782518255916020019190600101906116c6565b50610ee192610bf29250905b80821115610ee157600081556001016116ed5600a165627a7a723058208d7cf21d917463c294f52a25e06b659f7efaf402511cfaf34b5ba89e48e2e6890029",
  "source": "pragma solidity ^0.4.24;\n\n\n/*\n* Team JUST presents..\n* ====================================*\n* _____     _ _ _ _____    ___ ____   * \n*|  _  |___| | | |  |  |  |_  |    \\  *\n*|   __| . | | | |     |  |_  |  |  | * \n*|__|  |___|_____|__|__|  |___|____/  *\n*                                     *\n* ====================================*\n* -> What?\n* The original autonomous pyramid, improved:\n* [x] More stable than ever, having withstood severe testnet abuse and attack attempts from our community!.\n* [x] Audited, tested, and approved by known community security specialists such as tocsick and Arc.\n* [X] New functionality; you can now perform partial sell orders. If you succumb to weak hands, you don't have to dump all of your bags!\n* [x] New functionality; you can now transfer tokens between wallets. Trading is now possible from within the contract!\n* [x] New Feature: PoS Masternodes! The first implementation of Ethereum Staking in the world! Vitalik is mad.\n* [x] Masternodes: Holding 100 PoWH3D Tokens allow you to generate a Masternode link, Masternode links are used as unique entry points to the contract!\n* [x] Masternodes: All players who enter the contract through your Masternode have 30% of their 10% dividends fee rerouted from the master-node, to the node-master!\n*\n* -> What about the last projects?\n* Every programming member of the old dev team has been fired and/or killed by 232.\n* The new dev team consists of seasoned, professional developers and has been audited by veteran solidity experts.\n* Additionally, two independent testnet iterations have been used by hundreds of people; not a single point of failure was found.\n* \n* -> Who worked on this project?\n* - PonziBot (math/memes/main site/master)\n* - Mantso (lead solidity dev/lead web3 dev)\n* - swagg (concept design/feedback/management)\n* - Anonymous#1 (main site/web3/test cases)\n* - Anonymous#2 (math formulae/whitepaper)\n*\n* -> Who has audited & approved the projected:\n* - Arc\n* - tocisck\n* - sumpunk\n*/\nimport \"./library/SafeMath.sol\";\n\ncontract Hourglass {\n    /*=================================\n    =            MODIFIERS            =\n    =================================*/\n    // only people with tokens\n    modifier onlyBagholders() {\n        require(myTokens() > 0);\n        _;\n    }\n    \n    // only people with profits\n    modifier onlyStronghands() {\n        require(myDividends(true) > 0);\n        _;\n    }\n    \n    // administrators can:\n    // -> change the name of the contract\n    // -> change the name of the token\n    // -> change the PoS difficulty (How many tokens it costs to hold a masternode, in case it gets crazy high later)\n    // they CANNOT:\n    // -> take funds\n    // -> disable withdrawals\n    // -> kill the contract\n    // -> change the price of tokens\n    modifier onlyAdministrator(){\n        address _customerAddress = msg.sender;\n        require(administrators[keccak256(_customerAddress)]);\n        _;\n    }\n    \n    \n    // ensures that the first tokens in the contract will be equally distributed\n    // meaning, no divine dump will be ever possible\n    // result: healthy longevity.\n    modifier antiEarlyWhale(uint256 _amountOfEthereum){\n        address _customerAddress = msg.sender;\n        \n        // are we still in the vulnerable phase?\n        // if so, enact anti early whale protocol \n        if( onlyAmbassadors && ((totalEthereumBalance() - _amountOfEthereum) <= ambassadorQuota_ )){\n            require(\n                // is the customer in the ambassador list?\n                ambassadors_[_customerAddress] == true &&\n                \n                // does the customer purchase exceed the max ambassador quota?\n                (ambassadorAccumulatedQuota_[_customerAddress] + _amountOfEthereum) <= ambassadorMaxPurchase_\n                \n            );\n            \n            // updated the accumulated quota    \n            ambassadorAccumulatedQuota_[_customerAddress] = SafeMath.add(ambassadorAccumulatedQuota_[_customerAddress], _amountOfEthereum);\n        \n            // execute\n            _;\n        } else {\n            // in case the ether count drops low, the ambassador phase won't reinitiate\n            onlyAmbassadors = false;\n            _;    \n        }\n        \n    }\n    \n    \n    /*==============================\n    =            EVENTS            =\n    ==============================*/\n    event onTokenPurchase(\n        address indexed customerAddress,\n        uint256 incomingEthereum,\n        uint256 tokensMinted,\n        address indexed referredBy\n    );\n    \n    event onTokenSell(\n        address indexed customerAddress,\n        uint256 tokensBurned,\n        uint256 ethereumEarned\n    );\n    \n    event onReinvestment(\n        address indexed customerAddress,\n        uint256 ethereumReinvested,\n        uint256 tokensMinted\n    );\n    \n    event onWithdraw(\n        address indexed customerAddress,\n        uint256 ethereumWithdrawn\n    );\n    \n    // ERC20\n    event Transfer(\n        address indexed from,\n        address indexed to,\n        uint256 tokens\n    );\n    \n    \n    /*=====================================\n    =            CONFIGURABLES            =\n    =====================================*/\n    string public name = \"PowH3D\";\n    string public symbol = \"P3D\";\n    uint8 constant public decimals = 18;\n    uint8 constant internal dividendFee_ = 10;\n    uint256 constant internal tokenPriceInitial_ = 0.0000001 ether;\n    uint256 constant internal tokenPriceIncremental_ = 0.00000001 ether;\n    uint256 constant internal magnitude = 2**64;\n    \n    // proof of stake (defaults at 100 tokens)\n    uint256 public stakingRequirement = 100e18;\n    \n    // ambassador program\n    mapping(address => bool) internal ambassadors_;\n    uint256 constant internal ambassadorMaxPurchase_ = 1 ether;\n    uint256 constant internal ambassadorQuota_ = 20 ether;\n    \n    \n    \n   /*================================\n    =            DATASETS            =\n    ================================*/\n    // amount of shares for each address (scaled number)\n    mapping(address => uint256) internal tokenBalanceLedger_;\n    mapping(address => uint256) internal referralBalance_;\n    mapping(address => int256) internal payoutsTo_;\n    mapping(address => uint256) internal ambassadorAccumulatedQuota_;\n    uint256 internal tokenSupply_ = 0;\n    uint256 internal profitPerShare_;\n    \n    // administrator list (see above on what they can do)\n    mapping(bytes32 => bool) public administrators;\n    \n    // when this is set to true, only ambassadors can purchase tokens (this prevents a whale premine, it ensures a fairly distributed upper pyramid)\n    bool public onlyAmbassadors = true;\n    \n\n\n    /*=======================================\n    =            PUBLIC FUNCTIONS            =\n    =======================================*/\n    /*\n    * -- APPLICATION ENTRY POINTS --  \n    */\n    function Hourglass()\n        public\n    {\n        // add administrators here\n        administrators[0xdd8bb99b13fe33e1c32254dfb8fff3e71193f6b730a89dd33bfe5dedc6d83002] = true;\n        \n        // add the ambassadors here.\n        // mantso - lead solidity dev & lead web dev. \n        ambassadors_[0x8b4DA1827932D71759687f925D17F81Fc94e3A9D] = true;\n        \n        // ponzibot - mathematics & website, and undisputed meme god.\n        ambassadors_[0x8e0d985f3Ec1857BEc39B76aAabDEa6B31B67d53] = true;\n        \n        // swagg - concept design, feedback, management.\n        ambassadors_[0x7563A35d5610eE7c9CD330E255Da0e779a644C19] = true;\n        \n        // k-dawgz - shilling machine, meme maestro, bizman.\n        ambassadors_[0x215e3C713BADb158A457e61f99325bBB5d278E57] = true;\n        \n        // elmojo - all those pretty .GIFs & memes you see? you can thank this man for that.\n        ambassadors_[0xaFF8B5CDCB339eEf5e1100597740a394C7B9c6cA] = true;\n        \n        // capex - community moderator.\n        ambassadors_[0x8dc6569c28521560EAF1890bC41b2F3FC2010E1b] = true;\n        \n        // jrmungandr - pentests & twitter trendsetter.\n        ambassadors_[0xf14BE3662FE4c9215c27698166759Db6967De94f] = true;\n        \n        // inventor - the source behind the non-intrusive referral model.\n        ambassadors_[0x18E90Fc6F70344f53EBd4f6070bf6Aa23e2D748C] = true;\n        \n        // tocsick - pentesting, contract auditing.\n        ambassadors_[0x49Aae4D923207e80Fc91E626BCb6532502264dfC] = true;\n        \n        // arc - pentesting, contract auditing.\n        ambassadors_[0x3a0cca1A832644B60730E5D4c27947C5De609d62] = true;\n        \n        // sumpunk - contract auditing.\n        ambassadors_[0x7ac74Fcc1a71b106F12c55ee8F802C9F672Ce40C] = true;\n        \n        // randall - charts & sheets, data dissector, advisor.\n        ambassadors_[0x2b219C2178f099dE4E9A3667d5cCc2cc64da0763] = true;\n        \n        // ambius - 3d chart visualization.\n        ambassadors_[0x2A04C7335f90a6bd4e9c4F713DD792200e27F2E6] = true;\n        \n        // contributors that need to remain private out of security concerns.\n        ambassadors_[0x35668818ba8F768D4C21787a6f45C86C69394dfD] = true; //dp\n        ambassadors_[0xa3120da52e604aC3Fc80A63813Ef15476e0B6AbD] = true; //tc\n        ambassadors_[0x924E71bA600372e2410285423F1Fe66799b717EC] = true; //ja\n        ambassadors_[0x6Ed450e062C20F929CB7Ee72fCc53e9697980a18] = true; //sf\n        ambassadors_[0x18864A6682c8EB79EEA5B899F11bC94ef9a85ADb] = true; //tb\n        ambassadors_[0x9cC1BdC994b7a847705D19106287C0BF94EF04B5] = true; //sm\n        ambassadors_[0x6926572813ec1438088963f208C61847df435a74] = true; //mc\n        ambassadors_[0xE16Ab764a02Ae03681E351Ac58FE79717c0eE8C6] = true; //et\n        ambassadors_[0x276F4a79F22D1BfC51Bd8dc5b27Bfd934C823932] = true; //sn\n        ambassadors_[0xA2b4ed3E2f4beF09FB35101B76Ef4cB9D3eeCaCf] = true; //bt\n        ambassadors_[0x147fc6b04c95BCE47D013c8d7a200ee434323669] = true; //al\n        \n\n    }\n    \n     \n    /**\n     * Converts all incoming ethereum to tokens for the caller, and passes down the referral addy (if any)\n     */\n    function buy(address _referredBy)\n        public\n        payable\n        returns(uint256)\n    {\n        purchaseTokens(msg.value, _referredBy);\n    }\n    \n    /**\n     * Fallback function to handle ethereum that was send straight to the contract\n     * Unfortunately we cannot use a referral address this way.\n     */\n    function()\n        payable\n        public\n    {\n        purchaseTokens(msg.value, 0x0);\n    }\n    \n    /**\n     * Converts all of caller's dividends to tokens.\n     */\n    function reinvest()\n        onlyStronghands()\n        public\n    {\n        // fetch dividends\n        uint256 _dividends = myDividends(false); // retrieve ref. bonus later in the code\n        \n        // pay out the dividends virtually\n        address _customerAddress = msg.sender;\n        payoutsTo_[_customerAddress] +=  (int256) (_dividends * magnitude);\n        \n        // retrieve ref. bonus\n        _dividends += referralBalance_[_customerAddress];\n        referralBalance_[_customerAddress] = 0;\n        \n        // dispatch a buy order with the virtualized \"withdrawn dividends\"\n        uint256 _tokens = purchaseTokens(_dividends, 0x0);\n        \n        // fire event\n        onReinvestment(_customerAddress, _dividends, _tokens);\n    }\n    \n    /**\n     * Alias of sell() and withdraw().\n     */\n    function exit()\n        public\n    {\n        // get token count for caller & sell them all\n        address _customerAddress = msg.sender;\n        uint256 _tokens = tokenBalanceLedger_[_customerAddress];\n        if(_tokens > 0) sell(_tokens);\n        \n        // lambo delivery service\n        withdraw();\n    }\n\n    /**\n     * Withdraws all of the callers earnings.\n     */\n    function withdraw()\n        onlyStronghands()\n        public\n    {\n        // setup data\n        address _customerAddress = msg.sender;\n        uint256 _dividends = myDividends(false); // get ref. bonus later in the code\n        \n        // update dividend tracker\n        payoutsTo_[_customerAddress] +=  (int256) (_dividends * magnitude);\n        \n        // add ref. bonus\n        _dividends += referralBalance_[_customerAddress];\n        referralBalance_[_customerAddress] = 0;\n        \n        // lambo delivery service\n        _customerAddress.transfer(_dividends);\n        \n        // fire event\n        onWithdraw(_customerAddress, _dividends);\n    }\n    \n    /**\n     * Liquifies tokens to ethereum.\n     */\n    function sell(uint256 _amountOfTokens)\n        onlyBagholders()\n        public\n    {\n        // setup data\n        address _customerAddress = msg.sender;\n        // russian hackers BTFO\n        require(_amountOfTokens <= tokenBalanceLedger_[_customerAddress]);\n        uint256 _tokens = _amountOfTokens;\n        uint256 _ethereum = tokensToEthereum_(_tokens);\n        uint256 _dividends = SafeMath.div(_ethereum, dividendFee_);\n        uint256 _taxedEthereum = SafeMath.sub(_ethereum, _dividends);\n        \n        // burn the sold tokens\n        tokenSupply_ = SafeMath.sub(tokenSupply_, _tokens);\n        tokenBalanceLedger_[_customerAddress] = SafeMath.sub(tokenBalanceLedger_[_customerAddress], _tokens);\n        \n        // update dividends tracker\n        int256 _updatedPayouts = (int256) (profitPerShare_ * _tokens + (_taxedEthereum * magnitude));\n        payoutsTo_[_customerAddress] -= _updatedPayouts;       \n        \n        // dividing by zero is a bad idea\n        if (tokenSupply_ > 0) {\n            // update the amount of dividends per token\n            profitPerShare_ = SafeMath.add(profitPerShare_, (_dividends * magnitude) / tokenSupply_);\n        }\n        \n        // fire event\n        onTokenSell(_customerAddress, _tokens, _taxedEthereum);\n    }\n    \n    \n    /**\n     * Transfer tokens from the caller to a new holder.\n     * Remember, there's a 10% fee here as well.\n     */\n    function transfer(address _toAddress, uint256 _amountOfTokens)\n        onlyBagholders()\n        public\n        returns(bool)\n    {\n        // setup\n        address _customerAddress = msg.sender;\n        \n        // make sure we have the requested tokens\n        // also disables transfers until ambassador phase is over\n        // ( we dont want whale premines )\n        require(!onlyAmbassadors && _amountOfTokens <= tokenBalanceLedger_[_customerAddress]);\n        \n        // withdraw all outstanding dividends first\n        if(myDividends(true) > 0) withdraw();\n        \n        // liquify 10% of the tokens that are transfered\n        // these are dispersed to shareholders\n        uint256 _tokenFee = SafeMath.div(_amountOfTokens, dividendFee_);\n        uint256 _taxedTokens = SafeMath.sub(_amountOfTokens, _tokenFee);\n        uint256 _dividends = tokensToEthereum_(_tokenFee);\n  \n        // burn the fee tokens\n        tokenSupply_ = SafeMath.sub(tokenSupply_, _tokenFee);\n\n        // exchange tokens\n        tokenBalanceLedger_[_customerAddress] = SafeMath.sub(tokenBalanceLedger_[_customerAddress], _amountOfTokens);\n        tokenBalanceLedger_[_toAddress] = SafeMath.add(tokenBalanceLedger_[_toAddress], _taxedTokens);\n        \n        // update dividend trackers\n        payoutsTo_[_customerAddress] -= (int256) (profitPerShare_ * _amountOfTokens);\n        payoutsTo_[_toAddress] += (int256) (profitPerShare_ * _taxedTokens);\n        \n        // disperse dividends among holders\n        profitPerShare_ = SafeMath.add(profitPerShare_, (_dividends * magnitude) / tokenSupply_);\n        \n        // fire event\n        Transfer(_customerAddress, _toAddress, _taxedTokens);\n        \n        // ERC20\n        return true;\n       \n    }\n    \n    /*----------  ADMINISTRATOR ONLY FUNCTIONS  ----------*/\n    /**\n     * In case the amassador quota is not met, the administrator can manually disable the ambassador phase.\n     */\n    function disableInitialStage()\n        onlyAdministrator()\n        public\n    {\n        onlyAmbassadors = false;\n    }\n    \n    /**\n     * In case one of us dies, we need to replace ourselves.\n     */\n    function setAdministrator(bytes32 _identifier, bool _status)\n        onlyAdministrator()\n        public\n    {\n        administrators[_identifier] = _status;\n    }\n    \n    /**\n     * Precautionary measures in case we need to adjust the masternode rate.\n     */\n    function setStakingRequirement(uint256 _amountOfTokens)\n        onlyAdministrator()\n        public\n    {\n        stakingRequirement = _amountOfTokens;\n    }\n    \n    /**\n     * If we want to rebrand, we can.\n     */\n    function setName(string _name)\n        onlyAdministrator()\n        public\n    {\n        name = _name;\n    }\n    \n    /**\n     * If we want to rebrand, we can.\n     */\n    function setSymbol(string _symbol)\n        onlyAdministrator()\n        public\n    {\n        symbol = _symbol;\n    }\n\n    \n    /*----------  HELPERS AND CALCULATORS  ----------*/\n    /**\n     * Method to view the current Ethereum stored in the contract\n     * Example: totalEthereumBalance()\n     */\n    function totalEthereumBalance()\n        public\n        view\n        returns(uint)\n    {\n        return this.balance;\n    }\n    \n    /**\n     * Retrieve the total token supply.\n     */\n    function totalSupply()\n        public\n        view\n        returns(uint256)\n    {\n        return tokenSupply_;\n    }\n    \n    /**\n     * Retrieve the tokens owned by the caller.\n     */\n    function myTokens()\n        public\n        view\n        returns(uint256)\n    {\n        address _customerAddress = msg.sender;\n        return balanceOf(_customerAddress);\n    }\n    \n    /**\n     * Retrieve the dividends owned by the caller.\n     * If `_includeReferralBonus` is to to 1/true, the referral bonus will be included in the calculations.\n     * The reason for this, is that in the frontend, we will want to get the total divs (global + ref)\n     * But in the internal calculations, we want them separate. \n     */ \n    function myDividends(bool _includeReferralBonus) \n        public \n        view \n        returns(uint256)\n    {\n        address _customerAddress = msg.sender;\n        return _includeReferralBonus ? dividendsOf(_customerAddress) + referralBalance_[_customerAddress] : dividendsOf(_customerAddress) ;\n    }\n    \n    /**\n     * Retrieve the token balance of any single address.\n     */\n    function balanceOf(address _customerAddress)\n        view\n        public\n        returns(uint256)\n    {\n        return tokenBalanceLedger_[_customerAddress];\n    }\n    \n    /**\n     * Retrieve the dividend balance of any single address.\n     */\n    function dividendsOf(address _customerAddress)\n        view\n        public\n        returns(uint256)\n    {\n        return (uint256) ((int256)(profitPerShare_ * tokenBalanceLedger_[_customerAddress]) - payoutsTo_[_customerAddress]) / magnitude;\n    }\n    \n    /**\n     * Return the buy price of 1 individual token.\n     */\n    function sellPrice() \n        public \n        view \n        returns(uint256)\n    {\n        // our calculation relies on the token supply, so we need supply. Doh.\n        if(tokenSupply_ == 0){\n            return tokenPriceInitial_ - tokenPriceIncremental_;\n        } else {\n            uint256 _ethereum = tokensToEthereum_(1e18);\n            uint256 _dividends = SafeMath.div(_ethereum, dividendFee_  );\n            uint256 _taxedEthereum = SafeMath.sub(_ethereum, _dividends);\n            return _taxedEthereum;\n        }\n    }\n    \n    /**\n     * Return the sell price of 1 individual token.\n     */\n    function buyPrice() \n        public \n        view \n        returns(uint256)\n    {\n        // our calculation relies on the token supply, so we need supply. Doh.\n        if(tokenSupply_ == 0){\n            return tokenPriceInitial_ + tokenPriceIncremental_;\n        } else {\n            uint256 _ethereum = tokensToEthereum_(1e18);\n            uint256 _dividends = SafeMath.div(_ethereum, dividendFee_  );\n            uint256 _taxedEthereum = SafeMath.add(_ethereum, _dividends);\n            return _taxedEthereum;\n        }\n    }\n    \n    /**\n     * Function for the frontend to dynamically retrieve the price scaling of buy orders.\n     */\n    function calculateTokensReceived(uint256 _ethereumToSpend) \n        public \n        view \n        returns(uint256)\n    {\n        uint256 _dividends = SafeMath.div(_ethereumToSpend, dividendFee_);\n        uint256 _taxedEthereum = SafeMath.sub(_ethereumToSpend, _dividends);\n        uint256 _amountOfTokens = ethereumToTokens_(_taxedEthereum);\n        \n        return _amountOfTokens;\n    }\n    \n    /**\n     * Function for the frontend to dynamically retrieve the price scaling of sell orders.\n     */\n    function calculateEthereumReceived(uint256 _tokensToSell) \n        public \n        view \n        returns(uint256)\n    {\n        require(_tokensToSell <= tokenSupply_);\n        uint256 _ethereum = tokensToEthereum_(_tokensToSell);\n        uint256 _dividends = SafeMath.div(_ethereum, dividendFee_);\n        uint256 _taxedEthereum = SafeMath.sub(_ethereum, _dividends);\n        return _taxedEthereum;\n    }\n    \n    \n    /*==========================================\n    =            INTERNAL FUNCTIONS            =\n    ==========================================*/\n    function purchaseTokens(uint256 _incomingEthereum, address _referredBy)\n        antiEarlyWhale(_incomingEthereum)\n        internal\n        returns(uint256)\n    {\n        // data setup\n        address _customerAddress = msg.sender;\n        uint256 _undividedDividends = SafeMath.div(_incomingEthereum, dividendFee_);\n        uint256 _referralBonus = SafeMath.div(_undividedDividends, 3);\n        uint256 _dividends = SafeMath.sub(_undividedDividends, _referralBonus);\n        uint256 _taxedEthereum = SafeMath.sub(_incomingEthereum, _undividedDividends);\n        uint256 _amountOfTokens = ethereumToTokens_(_taxedEthereum);\n        uint256 _fee = _dividends * magnitude;\n \n        // no point in continuing execution if OP is a poorfag russian hacker\n        // prevents overflow in the case that the pyramid somehow magically starts being used by everyone in the world\n        // (or hackers)\n        // and yes we know that the safemath function automatically rules out the \"greater then\" equasion.\n        require(_amountOfTokens > 0 && (SafeMath.add(_amountOfTokens,tokenSupply_) > tokenSupply_));\n        \n        // is the user referred by a masternode?\n        if(\n            // is this a referred purchase?\n            _referredBy != 0x0000000000000000000000000000000000000000 &&\n\n            // no cheating!\n            _referredBy != _customerAddress &&\n            \n            // does the referrer have at least X whole tokens?\n            // i.e is the referrer a godly chad masternode\n            tokenBalanceLedger_[_referredBy] >= stakingRequirement\n        ){\n            // wealth redistribution\n            referralBalance_[_referredBy] = SafeMath.add(referralBalance_[_referredBy], _referralBonus);\n        } else {\n            // no ref purchase\n            // add the referral bonus back to the global dividends cake\n            _dividends = SafeMath.add(_dividends, _referralBonus);\n            _fee = _dividends * magnitude;\n        }\n        \n        // we can't give people infinite ethereum\n        if(tokenSupply_ > 0){\n            \n            // add tokens to the pool\n            tokenSupply_ = SafeMath.add(tokenSupply_, _amountOfTokens);\n \n            // take the amount of dividends gained through this transaction, and allocates them evenly to each shareholder\n            profitPerShare_ += (_dividends * magnitude / (tokenSupply_));\n            \n            // calculate the amount of tokens the customer receives over his purchase \n            _fee = _fee - (_fee-(_amountOfTokens * (_dividends * magnitude / (tokenSupply_))));\n        \n        } else {\n            // add tokens to the pool\n            tokenSupply_ = _amountOfTokens;\n        }\n        \n        // update circulating supply & the ledger address for the customer\n        tokenBalanceLedger_[_customerAddress] = SafeMath.add(tokenBalanceLedger_[_customerAddress], _amountOfTokens);\n        \n        // Tells the contract that the buyer doesn't deserve dividends for the tokens before they owned them;\n        //really i know you think you do but you don't\n        int256 _updatedPayouts = (int256) ((profitPerShare_ * _amountOfTokens) - _fee);\n        payoutsTo_[_customerAddress] += _updatedPayouts;\n        \n        // fire event\n        onTokenPurchase(_customerAddress, _incomingEthereum, _amountOfTokens, _referredBy);\n        \n        return _amountOfTokens;\n    }\n\n    /**\n     * Calculate Token price based on an amount of incoming ethereum\n     * It's an algorithm, hopefully we gave you the whitepaper with it in scientific notation;\n     * Some conversions occurred to prevent decimal errors or underflows / overflows in solidity code.\n     */\n    function ethereumToTokens_(uint256 _ethereum)\n        internal\n        view\n        returns(uint256)\n    {\n        uint256 _tokenPriceInitial = tokenPriceInitial_ * 1e18;\n        uint256 _tokensReceived = \n         (\n            (\n                // underflow attempts BTFO\n                SafeMath.sub(\n                    (sqrt\n                        (\n                            (_tokenPriceInitial**2)\n                            +\n                            (2*(tokenPriceIncremental_ * 1e18)*(_ethereum * 1e18))\n                            +\n                            (((tokenPriceIncremental_)**2)*(tokenSupply_**2))\n                            +\n                            (2*(tokenPriceIncremental_)*_tokenPriceInitial*tokenSupply_)\n                        )\n                    ), _tokenPriceInitial\n                )\n            )/(tokenPriceIncremental_)\n        )-(tokenSupply_)\n        ;\n  \n        return _tokensReceived;\n    }\n    \n    /**\n     * Calculate token sell value.\n     * It's an algorithm, hopefully we gave you the whitepaper with it in scientific notation;\n     * Some conversions occurred to prevent decimal errors or underflows / overflows in solidity code.\n     */\n     function tokensToEthereum_(uint256 _tokens)\n        internal\n        view\n        returns(uint256)\n    {\n\n        uint256 tokens_ = (_tokens + 1e18);\n        uint256 _tokenSupply = (tokenSupply_ + 1e18);\n        uint256 _etherReceived =\n        (\n            // underflow attempts BTFO\n            SafeMath.sub(\n                (\n                    (\n                        (\n                            tokenPriceInitial_ +(tokenPriceIncremental_ * (_tokenSupply/1e18))\n                        )-tokenPriceIncremental_\n                    )*(tokens_ - 1e18)\n                ),(tokenPriceIncremental_*((tokens_**2-tokens_)/1e18))/2\n            )\n        /1e18);\n        return _etherReceived;\n    }\n    \n    \n    //This is where all your gas goes, sorry\n    //Not sorry, you probably only paid 1 gwei\n    function sqrt(uint x) internal pure returns (uint y) {\n        uint z = (x + 1) / 2;\n        y = x;\n        while (z < y) {\n            y = z;\n            z = (x / z + z) / 2;\n        }\n    }\n}\n",
  "sourcePath": "/Users/fanchun/fomo3d_truffle1/contracts/Hourglass.sol",
  "compiler": {
    "name": "solc",
    "version": "0.4.24+commit.e67f0147.Emscripten.clang"
  },
  "schemaVersion": "2.0.1",
  "updatedAt": "2018-08-31T03:25:34.466Z"
}