{
  "contractName": "TeamJust",
  "abi": [
    {
      "inputs": [],
      "payable": false,
      "stateMutability": "nonpayable",
      "type": "constructor"
    },
    {
      "payable": true,
      "stateMutability": "payable",
      "type": "fallback"
    },
    {
      "constant": false,
      "inputs": [
        {
          "name": "_whatFunction",
          "type": "bytes32"
        }
      ],
      "name": "deleteAnyProposal",
      "outputs": [],
      "payable": false,
      "stateMutability": "nonpayable",
      "type": "function"
    },
    {
      "constant": true,
      "inputs": [
        {
          "name": "_whatFunction",
          "type": "bytes32"
        }
      ],
      "name": "checkData",
      "outputs": [
        {
          "name": "message_data",
          "type": "bytes32"
        },
        {
          "name": "signature_count",
          "type": "uint256"
        }
      ],
      "payable": false,
      "stateMutability": "view",
      "type": "function"
    },
    {
      "constant": true,
      "inputs": [
        {
          "name": "_whatFunction",
          "type": "bytes32"
        },
        {
          "name": "_signerA",
          "type": "uint256"
        },
        {
          "name": "_signerB",
          "type": "uint256"
        },
        {
          "name": "_signerC",
          "type": "uint256"
        }
      ],
      "name": "checkSignersByName",
      "outputs": [
        {
          "name": "",
          "type": "bytes32"
        },
        {
          "name": "",
          "type": "bytes32"
        },
        {
          "name": "",
          "type": "bytes32"
        }
      ],
      "payable": false,
      "stateMutability": "view",
      "type": "function"
    },
    {
      "constant": false,
      "inputs": [
        {
          "name": "_who",
          "type": "address"
        },
        {
          "name": "_name",
          "type": "bytes32"
        },
        {
          "name": "_isDev",
          "type": "bool"
        }
      ],
      "name": "addAdmin",
      "outputs": [],
      "payable": false,
      "stateMutability": "nonpayable",
      "type": "function"
    },
    {
      "constant": false,
      "inputs": [
        {
          "name": "_who",
          "type": "address"
        }
      ],
      "name": "removeAdmin",
      "outputs": [],
      "payable": false,
      "stateMutability": "nonpayable",
      "type": "function"
    },
    {
      "constant": false,
      "inputs": [
        {
          "name": "_howMany",
          "type": "uint256"
        }
      ],
      "name": "changeRequiredSignatures",
      "outputs": [],
      "payable": false,
      "stateMutability": "nonpayable",
      "type": "function"
    },
    {
      "constant": false,
      "inputs": [
        {
          "name": "_howMany",
          "type": "uint256"
        }
      ],
      "name": "changeRequiredDevSignatures",
      "outputs": [],
      "payable": false,
      "stateMutability": "nonpayable",
      "type": "function"
    },
    {
      "constant": true,
      "inputs": [],
      "name": "requiredSignatures",
      "outputs": [
        {
          "name": "",
          "type": "uint256"
        }
      ],
      "payable": false,
      "stateMutability": "view",
      "type": "function"
    },
    {
      "constant": true,
      "inputs": [],
      "name": "requiredDevSignatures",
      "outputs": [
        {
          "name": "",
          "type": "uint256"
        }
      ],
      "payable": false,
      "stateMutability": "view",
      "type": "function"
    },
    {
      "constant": true,
      "inputs": [],
      "name": "adminCount",
      "outputs": [
        {
          "name": "",
          "type": "uint256"
        }
      ],
      "payable": false,
      "stateMutability": "view",
      "type": "function"
    },
    {
      "constant": true,
      "inputs": [],
      "name": "devCount",
      "outputs": [
        {
          "name": "",
          "type": "uint256"
        }
      ],
      "payable": false,
      "stateMutability": "view",
      "type": "function"
    },
    {
      "constant": true,
      "inputs": [
        {
          "name": "_who",
          "type": "address"
        }
      ],
      "name": "adminName",
      "outputs": [
        {
          "name": "",
          "type": "bytes32"
        }
      ],
      "payable": false,
      "stateMutability": "view",
      "type": "function"
    },
    {
      "constant": true,
      "inputs": [
        {
          "name": "_who",
          "type": "address"
        }
      ],
      "name": "isAdmin",
      "outputs": [
        {
          "name": "",
          "type": "bool"
        }
      ],
      "payable": false,
      "stateMutability": "view",
      "type": "function"
    },
    {
      "constant": true,
      "inputs": [
        {
          "name": "_who",
          "type": "address"
        }
      ],
      "name": "isDev",
      "outputs": [
        {
          "name": "",
          "type": "bool"
        }
      ],
      "payable": false,
      "stateMutability": "view",
      "type": "function"
    }
  ],
  "bytecode": "0x608060405234801561001057600080fd5b5060008054600160a060020a0319163390811782556040805160608181018352600180835260208084018281527f696e76656e746f720000000000000000000000000000000000000000000000008587019081527318e90fc6f70344f53ebd4f6070bf6aa23e2d748c8952600280845295517fa2edb5b4954b59702b17b09138785fb3effb7b80d8ccc86636fed768ee1f7c8680549351151561010090810261ff001993151560ff199687161784161790915591517fa2edb5b4954b59702b17b09138785fb3effb7b80d8ccc86636fed768ee1f7c8755875180870189528581528085018681527f6d616e74736f0000000000000000000000000000000000000000000000000000828b01908152738b4da1827932d71759687f925d17f81fc94e3a9d8d5289875291517f020fbd463cc751eeff265b86be664bd9747425e0d97927aa585eb1cc0a53b2718054925115158602911515928716929092178416179055517f020fbd463cc751eeff265b86be664bd9747425e0d97927aa585eb1cc0a53b27255875180870189528581528085018681527f6a7573746f000000000000000000000000000000000000000000000000000000828b01908152738e0d985f3ec1857bec39b76aaabdea6b31b67d538d5289875291517f6e8896dafc8fc5989268150d058f71cd8d80dd83939845f49274eee1ca94e7718054925115158602911515928716929092178416179055517f6e8896dafc8fc5989268150d058f71cd8d80dd83939845f49274eee1ca94e77255875180870189528581528085018681527f73756d70756e6b00000000000000000000000000000000000000000000000000828b01908152737ac74fcc1a71b106f12c55ee8f802c9f672ce40c8d5289875291517fd9e737d431419ed42ed124d830e86896c6b24a17ae0fc80298ec06d9f3c9fbeb8054925115158602911515928716929092178416179055517fd9e737d431419ed42ed124d830e86896c6b24a17ae0fc80298ec06d9f3c9fbec55875195860188528486528584018581527f6465706c6f796572000000000000000000000000000000000000000000000000878a01908152998b529690935295909720925183549451151590950294151593909616929092179094169190911783559051918101919091556005600381905560048190558190556006556113ee8061037c6000396000f3006080604052600436106100b65763ffffffff60e060020a6000350416630c3f64bf81146100f45780630efcf295146101295780631785f53c1461014357806324d7806c146101645780632b7832b3146101855780632c296656146101ac578063372cd183146101c457806339f636ab146101ed5780638d06804314610205578063a553506e1461021a578063af1c084d1461024b578063cebc141a1461026c578063ed3643d614610281578063fcf2f85f146102c0575b60008054604051600160a060020a0390911691303180156108fc02929091818181858888f193505050501580156100f1573d6000803e3d6000fd5b50005b34801561010057600080fd5b50610115600160a060020a03600435166102d5565b604080519115158252519081900360200190f35b34801561013557600080fd5b506101416004356102f8565b005b34801561014f57600080fd5b50610141600160a060020a036004351661037a565b34801561017057600080fd5b50610115600160a060020a036004351661075a565b34801561019157600080fd5b5061019a610778565b60408051918252519081900360200190f35b3480156101b857600080fd5b5061014160043561077e565b3480156101d057600080fd5b50610141600160a060020a0360043516602435604435151561090e565b3480156101f957600080fd5b50610141600435610aa9565b34801561021157600080fd5b5061019a610c39565b34801561022657600080fd5b50610232600435610c3f565b6040805192835260208301919091528051918290030190f35b34801561025757600080fd5b5061019a600160a060020a0360043516610cf2565b34801561027857600080fd5b5061019a610d10565b34801561028d57600080fd5b506102a2600435602435604435606435610d16565b60408051938452602084019290925282820152519081900360600190f35b3480156102cc57600080fd5b5061019a610f57565b600160a060020a0316600090815260026020526040902054610100900460ff1690565b3360009081526002602052604090205460ff61010090910416151560011461036c576040805160e560020a62461bcd028152602060048201526029602482015260008051602061138383398151915260448201526000805160206113a3833981519152606482015290519081900360840190fd5b610377600182610f5d565b50565b3360009081526002602052604090205460ff6101009091041615156001146103ee576040805160e560020a62461bcd028152602060048201526029602482015260008051602061138383398151915260448201526000805160206113a3833981519152606482015290519081900360840190fd5b60035460011061045c576040805160e560020a62461bcd028152602060048201526033602482015260008051602061136383398151915260448201527f206c657373207468616e20322061646d696e7300000000000000000000000000606482015290519081900360840190fd5b60055460035410156104f2576040805160e560020a62461bcd02815260206004820152604f602482015260008051602061136383398151915260448201527f206c6573732061646d696e73207468616e206e756d626572206f66207265717560648201527f69726564207369676e6174757265730000000000000000000000000000000000608482015290519081900360a40190fd5b600160a060020a03811660009081526002602052604090205460ff610100909104161515600114156106225760045460011061058c576040805160e560020a62461bcd028152602060048201526031602482015260008051602061136383398151915260448201527f206c657373207468616e20322064657673000000000000000000000000000000606482015290519081900360840190fd5b6006546004541015610622576040805160e560020a62461bcd028152602060048201526051602482015260008051602061136383398151915260448201527f206c6573732064657673207468616e206e756d626572206f662072657175697260648201527f656420646576207369676e617475726573000000000000000000000000000000608482015290519081900360a40190fd5b61065060016006547f72656d6f766541646d696e00000000000000000000000000000000000000000061100f565b1515600114156103775761068560017f72656d6f766541646d696e000000000000000000000000000000000000000000610f5d565b600160a060020a03811660009081526002602052604090205460ff161515600114156106eb57600160a060020a0381166000908152600260205260409020805460ff1916905560038054600019019055600554600110156106eb57600580546000190190555b600160a060020a03811660009081526002602052604090205460ff6101009091041615156001141561037757600160a060020a0381166000908152600260205260409020805461ff00191690556004805460001901905560065460011015610377576006805460001901905550565b600160a060020a031660009081526002602052604090205460ff1690565b60035490565b3360009081526002602052604090205460ff6101009091041615156001146107f2576040805160e560020a62461bcd028152602060048201526029602482015260008051602061138383398151915260448201526000805160206113a3833981519152606482015290519081900360840190fd5b60008111801561080457506004548111155b15156108a6576040805160e560020a62461bcd02815260206004820152604960248201527f6368616e676552657175697265644465765369676e617475726573206661696c60448201527f6564202d206d757374206265206265747765656e203120616e64206e756d626560648201527f72206f6620646576730000000000000000000000000000000000000000000000608482015290519081900360a40190fd5b6108d460016006547f6368616e676552657175697265644465765369676e617475726573000000000061100f565b1515600114156103775761090960017f6368616e676552657175697265644465765369676e6174757265730000000000610f5d565b600655565b3360009081526002602052604090205460ff610100909104161515600114610982576040805160e560020a62461bcd028152602060048201526029602482015260008051602061138383398151915260448201526000805160206113a3833981519152606482015290519081900360840190fd5b6109b060016006547f61646441646d696e00000000000000000000000000000000000000000000000061100f565b151560011415610a89576109e560017f61646441646d696e000000000000000000000000000000000000000000000000610f5d565b600160a060020a03831660009081526002602052604090205460ff161515610a3f57600160a060020a0383166000908152600260205260409020805460ff1916600190811790915560038054820190556005805490910190555b60018115151415610a8957600160a060020a0383166000908152600260205260409020805461ff001916610100831515021790556004805460019081019091556006805490910190555b50600160a060020a03909116600090815260026020526040902060010155565b3360009081526002602052604090205460ff610100909104161515600114610b1d576040805160e560020a62461bcd028152602060048201526029602482015260008051602061138383398151915260448201526000805160206113a3833981519152606482015290519081900360840190fd5b600081118015610b2f57506003548111155b1515610bd1576040805160e560020a62461bcd02815260206004820152604860248201527f6368616e676552657175697265645369676e617475726573206661696c65642060448201527f2d206d757374206265206265747765656e203120616e64206e756d626572206f60648201527f662061646d696e73000000000000000000000000000000000000000000000000608482015290519081900360a40190fd5b610bff60016006547f6368616e676552657175697265645369676e617475726573000000000000000061100f565b15156001141561037757610c3460017f6368616e676552657175697265645369676e6174757265730000000000000000610f5d565b600555565b60055490565b33600090815260026020526040812054819060ff161515600114610cd3576040805160e560020a62461bcd02815260206004820152602e60248201527f6f6e6c7941646d696e73206661696c6564202d206d73672e73656e646572206960448201527f73206e6f7420616e2061646d696e000000000000000000000000000000000000606482015290519081900360840190fd5b610cde6001846111c6565b610ce96001856111ea565b91509150915091565b600160a060020a031660009081526002602052604090206001015490565b60045490565b336000908152600260205260408120548190819060ff161515600114610dac576040805160e560020a62461bcd02815260206004820152602e60248201527f6f6e6c7941646d696e73206661696c6564202d206d73672e73656e646572206960448201527f73206e6f7420616e2061646d696e000000000000000000000000000000000000606482015290519081900360840190fd5b3063af1c084d610dbe60018a8a611211565b6040518263ffffffff1660e060020a0281526004018082600160a060020a0316600160a060020a03168152602001915050602060405180830381600087803b158015610e0957600080fd5b505af1158015610e1d573d6000803e3d6000fd5b505050506040513d6020811015610e3357600080fd5b50513063af1c084d610e4760018b8a611211565b6040518263ffffffff1660e060020a0281526004018082600160a060020a0316600160a060020a03168152602001915050602060405180830381600087803b158015610e9257600080fd5b505af1158015610ea6573d6000803e3d6000fd5b505050506040513d6020811015610ebc57600080fd5b50513063af1c084d610ed060018c8a611211565b6040518263ffffffff1660e060020a0281526004018082600160a060020a0316600160a060020a03168152602001915050602060405180830381600087803b158015610f1b57600080fd5b505af1158015610f2f573d6000803e3d6000fd5b505050506040513d6020811015610f4557600080fd5b50519199909850909650945050505050565b60065490565b6000806000610f6b846112ce565b9250600090505b600083815260208690526040902060010154811015610ff457600083815260208681526040808320848452600381018084528285208054600160a060020a031680875260029093018552928520805460ff191690559385905292909152805473ffffffffffffffffffffffffffffffffffffffff191690559150600101610f72565b50506000908152602092909252506040812081815560010155565b6000806000806000611020866112ce565b600081815260208a9052604080822060010154905192965094503393509036908083838082843760405192018290039091209450505084151591506110ea905057600084815260208981526040808320848155600160a060020a038616808552600282018452828520805460ff19166001908117909155888652600383018552928520805473ffffffffffffffffffffffffffffffffffffffff1916909117905592879052908a90529081018054909101908190558714156110e557600194506111bb565b6111bb565b6000848152602089905260409020548114156111bb57600084815260208981526040808320600160a060020a038616845260020190915290205460ff16151561119d57600084815260208981526040808320600160a060020a038616808552600282018452828520805460ff19166001908117909155888652600383018552928520805473ffffffffffffffffffffffffffffffffffffffff1916909117905592879052908a9052908101805490910190555b6000848152602089905260409020600101548714156111bb57600194505b505050509392505050565b6000806111d2836112ce565b60009081526020949094525050604090912054919050565b6000806111f6836112ce565b60009081526020949094525050604090912060010154919050565b600080808311611291576040805160e560020a62461bcd02815260206004820152602860248201527f4d5346756e20636865636b5369676e6572206661696c6564202d2030206e6f7460448201527f20616c6c6f776564000000000000000000000000000000000000000000000000606482015290519081900360840190fd5b61129a846112ce565b60008181526020878152604080832060001988018452600301909152902054600160a060020a031692509050509392505050565b6040805160208082018490526c01000000000000000000000000300282840152825160348184030181526054909201928390528151600093918291908401908083835b602083106113305780518252601f199092019160209182019101611311565b5181516020939093036101000a6000190180199091169216919091179052604051920182900390912095945050505050560072656d6f766541646d696e206661696c6564202d2063616e6e6f7420686176656f6e6c7944657673206661696c6564202d206d73672e73656e646572206973206e6f742061206465760000000000000000000000000000000000000000000000a165627a7a723058207d8cedd79e245dbbab2786e1ef82c90a2921b7edf20a74f2fca3c6e6389092760029",
  "source": "pragma solidity ^0.4.24;\n/* -Team Just- v0.2.5\n * ┌┬┐┌─┐┌─┐┌┬┐   ╦╦ ╦╔═╗╔╦╗  ┌─┐┬─┐┌─┐┌─┐┌─┐┌┐┌┌┬┐┌─┐\n *  │ ├┤ ├─┤│││   ║║ ║╚═╗ ║   ├─┘├┬┘├┤ └─┐├┤ │││ │ └─┐\n *  ┴ └─┘┴ ┴┴ ┴  ╚╝╚═╝╚═╝ ╩   ┴  ┴└─└─┘└─┘└─┘┘└┘ ┴ └─┘\n *                                  _____                      _____\n *                                 (, /     /)       /) /)    (, /      /)          /)\n *          ┌─┐                      /   _ (/_      // //       /  _   // _   __  _(/\n *          ├─┤                  ___/___(/_/(__(_/_(/_(/_   ___/__/_)_(/_(_(_/ (_(_(_\n *          ┴ ┴                /   /          .-/ _____   (__ /                               \n *                            (__ /          (_/ (, /                                      /)™ \n *                                                 /  __  __ __ __  _   __ __  _  _/_ _  _(/\n * ┌─┐┬─┐┌─┐┌┬┐┬ ┬┌─┐┌┬┐                          /__/ (_(__(_)/ (_/_)_(_)/ (_(_(_(__(/_(_(_\n * ├─┘├┬┘│ │ │││ ││   │                      (__ /              .-/  © Jekyll Island Inc. 2018\n * ┴  ┴└─└─┘─┴┘└─┘└─┘ ┴                                        (_/\n *              JJJJJJJJJJUUUUUUUU     UUUUUUUU  SSSSSSSSSSSSSSSTTTTTTTTTTTTTTTTTTTTTTT\n *==============J:::::::::U::::::U=====U::::::USS:::::::::::::::T:::::::::::::::::::::T======*\n *              J:::::::::U::::::U     U::::::S:::::SSSSSS::::::T:::::::::::::::::::::T\n *              JJ:::::::JUU:::::U     U:::::US:::::S     SSSSSST:::::TT:::::::TT:::::T\n *                J:::::J  U:::::U     U:::::US:::::S           TTTTTT  T:::::T  TTTTTT\n *                J::_________ : ________::::US::_::S     ____    ____  T:::::T\n *                J:|  _   _  |:|_   __  |:::U S/ \\:SSSS |_   \\  /   _| T:::::T\n *                J:|_/:| |U\\_|::D| |_ \\_|:::U / _ \\::::SSS|   \\/   |   T:::::T\n *                J:::::| |U:::::D|  _| _::::U/ ___ \\::::::| |\\  /| |   T:::::T\n *    JJJJJJJ     J::::_| |_:::::_| |__/ |::_/ /   \\ \\_SS _| |_\\/_| |_  T:::::T\n *    J:::::J     J:::|_____|:::|________|:|____| |____| |_____||_____| T:::::T\n *    J::::::J   J::::::J  U::::::U   U::::::U            S:::::S       T:::::T\n *    J:::::::JJJ:::::::J  U:::::::UUU:::::::USSSSSSS     S:::::S     TT:::::::TT\n *     JJ:::::::::::::JJ    UU:::::::::::::UU S::::::SSSSSS:::::S     T:::::::::T\n *=======JJ:::::::::JJ========UU:::::::::UU===S:::::::::::::::SS======T:::::::::T============*\n *         JJJJJJJJJ            UUUUUUUUU      SSSSSSSSSSSSSSS        TTTTTTTTTTT\n * \n * ╔═╗┌─┐┌┐┌┌┬┐┬─┐┌─┐┌─┐┌┬┐  ╔═╗┌─┐┌┬┐┌─┐ ┌──────────┐\n * ║  │ ││││ │ ├┬┘├─┤│   │   ║  │ │ ││├┤  │ Inventor │\n * ╚═╝└─┘┘└┘ ┴ ┴└─┴ ┴└─┘ ┴   ╚═╝└─┘─┴┘└─┘ └──────────┘\n *\n *         ┌──────────────────────────────────────────────────────────────────────┐\n *         │ Que up intensely spectacular intro music...  In walks, Team Just.    │\n *         │                         Everyone goes crazy.                         │\n *         │ This is a companion to MSFun.  It's a central database of Devs and   │\n *         │ Admin's that we can import to any dapp to allow them management      │\n *         │ permissions.                                                         │\n *         └──────────────────────────────────────────────────────────────────────┘\n *                                ┌────────────────────┐\n *                                │ Setup Instructions │\n *                                └────────────────────┘\n * (Step 1) import this contracts interface into your contract\n * \n *    import \"./TeamJustInterface.sol\";\n *\n * (Step 2) set up the interface to point to the TeamJust contract\n * \n *    TeamJustInterface constant TeamJust = TeamJustInterface(0x464904238b5CdBdCE12722A7E6014EC1C0B66928);\n *\n *    modifier onlyAdmins() {require(TeamJust.isAdmin(msg.sender) == true, \"onlyAdmins failed - msg.sender is not an admin\"); _;}\n *    modifier onlyDevs() {require(TeamJust.isDev(msg.sender) == true, \"onlyDevs failed - msg.sender is not a dev\"); _;}\n *                                ┌────────────────────┐\n *                                │ Usage Instructions │\n *                                └────────────────────┘\n * use onlyAdmins() and onlyDevs() modifiers as you normally would on any function\n * you wish to restrict to admins/devs registered with this contract.\n * \n * to get required signatures for admins or devs\n *       uint256 x = TeamJust.requiredSignatures();\n *       uint256 x = TeamJust.requiredDevSignatures();\n * \n * to get admin count or dev count \n *       uint256 x = TeamJust.adminCount();\n *       uint256 x = TeamJust.devCount();\n * \n * to get the name of an admin (in bytes32 format)\n *       bytes32 x = TeamJust.adminName(address);\n */\n\n\nimport \"./library/SafeMath.sol\";\nimport \"./library/NameFilter.sol\";\nimport \"./library/MSFun.sol\";\n\nimport \"./interface/TeamJustInterface.sol\";\n\n\ncontract TeamJust is TeamJustInterface {\n    address private Jekyll_Island_Inc;\n    //^^^^^^^^^^^^^^^^^^^^^^^^^^^^^^^^^^^^^^^^^^^^^^^^^^^^^^^^^^^^^^^^^\n    // SET UP MSFun (note, check signers by name is modified from MSFun sdk)\n    //^^^^^^^^^^^^^^^^^^^^^^^^^^^^^^^^^^^^^^^^^^^^^^^^^^^^^^^^^^^^^^^^^\n    MSFun.Data private msData;\n    function deleteAnyProposal(bytes32 _whatFunction) onlyDevs() public {MSFun.deleteProposal(msData, _whatFunction);}\n    function checkData(bytes32 _whatFunction) onlyAdmins() public view returns(bytes32 message_data, uint256 signature_count) {return(MSFun.checkMsgData(msData, _whatFunction), MSFun.checkCount(msData, _whatFunction));}\n    function checkSignersByName(bytes32 _whatFunction, uint256 _signerA, uint256 _signerB, uint256 _signerC) onlyAdmins() public view returns(bytes32, bytes32, bytes32) {return(this.adminName(MSFun.checkSigner(msData, _whatFunction, _signerA)), this.adminName(MSFun.checkSigner(msData, _whatFunction, _signerB)), this.adminName(MSFun.checkSigner(msData, _whatFunction, _signerC)));}\n\n    //^^^^^^^^^^^^^^^^^^^^^^^^^^^^^^^^^^^^^^^^^^^^^^^^^^^^^^^^^^^^^^^^^\n    // DATA SETUP\n    //^^^^^^^^^^^^^^^^^^^^^^^^^^^^^^^^^^^^^^^^^^^^^^^^^^^^^^^^^^^^^^^^^\n    struct Admin {\n        bool isAdmin;\n        bool isDev;\n        bytes32 name;\n    }\n    mapping (address => Admin) admins_;\n    \n    uint256 adminCount_;\n    uint256 devCount_;\n    uint256 requiredSignatures_;\n    uint256 requiredDevSignatures_;\n    \n    //^^^^^^^^^^^^^^^^^^^^^^^^^^^^^^^^^^^^^^^^^^^^^^^^^^^^^^^^^^^^^^^^^\n    // CONSTRUCTOR\n    //^^^^^^^^^^^^^^^^^^^^^^^^^^^^^^^^^^^^^^^^^^^^^^^^^^^^^^^^^^^^^^^^^\n    constructor()\n        public\n    {\n        Jekyll_Island_Inc = msg.sender;\n        address inventor = 0x18E90Fc6F70344f53EBd4f6070bf6Aa23e2D748C;\n        address mantso   = 0x8b4DA1827932D71759687f925D17F81Fc94e3A9D;\n        address justo    = 0x8e0d985f3Ec1857BEc39B76aAabDEa6B31B67d53;\n        address sumpunk  = 0x7ac74Fcc1a71b106F12c55ee8F802C9F672Ce40C;\n\t\taddress deployer = msg.sender;\n        \n        admins_[inventor] = Admin(true, true, \"inventor\");\n        admins_[mantso]   = Admin(true, true, \"mantso\");\n        admins_[justo]    = Admin(true, true, \"justo\");\n        admins_[sumpunk]  = Admin(true, true, \"sumpunk\");\n\t\tadmins_[deployer] = Admin(true, true, \"deployer\");\n        \n        adminCount_ = 5;\n        devCount_ = 5;\n        requiredSignatures_ = 1;\n        requiredDevSignatures_ = 1;\n    }\n    //^^^^^^^^^^^^^^^^^^^^^^^^^^^^^^^^^^^^^^^^^^^^^^^^^^^^^^^^^^^^^^^^^\n    // FALLBACK, SETUP, AND FORWARD\n    //^^^^^^^^^^^^^^^^^^^^^^^^^^^^^^^^^^^^^^^^^^^^^^^^^^^^^^^^^^^^^^^^^\n    // there should never be a balance in this contract.  but if someone\n    // does stupidly send eth here for some reason.  we can forward it \n    // to jekyll island\n    function ()\n        public\n        payable\n    {\n        Jekyll_Island_Inc.transfer(address(this).balance);\n    }\n\n\n    //^^^^^^^^^^^^^^^^^^^^^^^^^^^^^^^^^^^^^^^^^^^^^^^^^^^^^^^^^^^^^^^^^\n    // MODIFIERS\n    //^^^^^^^^^^^^^^^^^^^^^^^^^^^^^^^^^^^^^^^^^^^^^^^^^^^^^^^^^^^^^^^^^\n    modifier onlyDevs()\n    {\n        require(admins_[msg.sender].isDev == true, \"onlyDevs failed - msg.sender is not a dev\");\n        _;\n    }\n    \n    modifier onlyAdmins()\n    {\n        require(admins_[msg.sender].isAdmin == true, \"onlyAdmins failed - msg.sender is not an admin\");\n        _;\n    }\n\n    //^^^^^^^^^^^^^^^^^^^^^^^^^^^^^^^^^^^^^^^^^^^^^^^^^^^^^^^^^^^^^^^^^\n    // DEV ONLY FUNCTIONS\n    //^^^^^^^^^^^^^^^^^^^^^^^^^^^^^^^^^^^^^^^^^^^^^^^^^^^^^^^^^^^^^^^^^\n    /**\n    * @dev DEV - use this to add admins.  this is a dev only function.\n    * @param _who - address of the admin you wish to add\n    * @param _name - admins name\n    * @param _isDev - is this admin also a dev?\n    */\n    function addAdmin(address _who, bytes32 _name, bool _isDev)\n        public\n        onlyDevs()\n    {\n        if (MSFun.multiSig(msData, requiredDevSignatures_, \"addAdmin\") == true) \n        {\n            MSFun.deleteProposal(msData, \"addAdmin\");\n            \n            // must check this so we dont mess up admin count by adding someone\n            // who is already an admin\n            if (admins_[_who].isAdmin == false) \n            { \n                \n                // set admins flag to true in admin mapping\n                admins_[_who].isAdmin = true;\n        \n                // adjust admin count and required signatures\n                adminCount_ += 1;\n                requiredSignatures_ += 1;\n            }\n            \n            // are we setting them as a dev?\n            // by putting this outside the above if statement, we can upgrade existing\n            // admins to devs.\n            if (_isDev == true) \n            {\n                // bestow the honored dev status\n                admins_[_who].isDev = _isDev;\n                \n                // increase dev count and required dev signatures\n                devCount_ += 1;\n                requiredDevSignatures_ += 1;\n            }\n        }\n        \n        // by putting this outside the above multisig, we can allow easy name changes\n        // without having to bother with multisig.  this will still create a proposal though\n        // so use the deleteAnyProposal to delete it if you want to\n        admins_[_who].name = _name;\n    }\n\n    /**\n    * @dev DEV - use this to remove admins. this is a dev only function.\n    * -requirements: never less than 1 admin\n    *                never less than 1 dev\n    *                never less admins than required signatures\n    *                never less devs than required dev signatures\n    * @param _who - address of the admin you wish to remove\n    */\n    function removeAdmin(address _who)\n        public\n        onlyDevs()\n    {\n        // we can put our requires outside the multisig, this will prevent\n        // creating a proposal that would never pass checks anyway.\n        require(adminCount_ > 1, \"removeAdmin failed - cannot have less than 2 admins\");\n        require(adminCount_ >= requiredSignatures_, \"removeAdmin failed - cannot have less admins than number of required signatures\");\n        if (admins_[_who].isDev == true)\n        {\n            require(devCount_ > 1, \"removeAdmin failed - cannot have less than 2 devs\");\n            require(devCount_ >= requiredDevSignatures_, \"removeAdmin failed - cannot have less devs than number of required dev signatures\");\n        }\n        \n        // checks passed\n        if (MSFun.multiSig(msData, requiredDevSignatures_, \"removeAdmin\") == true) \n        {\n            MSFun.deleteProposal(msData, \"removeAdmin\");\n            \n            // must check this so we dont mess up admin count by removing someone\n            // who wasnt an admin to start with\n            if (admins_[_who].isAdmin == true) {  \n                \n                //set admins flag to false in admin mapping\n                admins_[_who].isAdmin = false;\n                \n                //adjust admin count and required signatures\n                adminCount_ -= 1;\n                if (requiredSignatures_ > 1) \n                {\n                    requiredSignatures_ -= 1;\n                }\n            }\n            \n            // were they also a dev?\n            if (admins_[_who].isDev == true) {\n                \n                //set dev flag to false\n                admins_[_who].isDev = false;\n                \n                //adjust dev count and required dev signatures\n                devCount_ -= 1;\n                if (requiredDevSignatures_ > 1) \n                {\n                    requiredDevSignatures_ -= 1;\n                }\n            }\n        }\n    }\n\n    /**\n    * @dev DEV - change the number of required signatures.  must be between\n    * 1 and the number of admins.  this is a dev only function\n    * @param _howMany - desired number of required signatures\n    */\n    function changeRequiredSignatures(uint256 _howMany)\n        public\n        onlyDevs()\n    {  \n        // make sure its between 1 and number of admins\n        require(_howMany > 0 && _howMany <= adminCount_, \"changeRequiredSignatures failed - must be between 1 and number of admins\");\n        \n        if (MSFun.multiSig(msData, requiredDevSignatures_, \"changeRequiredSignatures\") == true) \n        {\n            MSFun.deleteProposal(msData, \"changeRequiredSignatures\");\n            \n            // store new setting.\n            requiredSignatures_ = _howMany;\n        }\n    }\n    \n    /**\n    * @dev DEV - change the number of required dev signatures.  must be between\n    * 1 and the number of devs.  this is a dev only function\n    * @param _howMany - desired number of required dev signatures\n    */\n    function changeRequiredDevSignatures(uint256 _howMany)\n        public\n        onlyDevs()\n    {  \n        // make sure its between 1 and number of admins\n        require(_howMany > 0 && _howMany <= devCount_, \"changeRequiredDevSignatures failed - must be between 1 and number of devs\");\n        \n        if (MSFun.multiSig(msData, requiredDevSignatures_, \"changeRequiredDevSignatures\") == true) \n        {\n            MSFun.deleteProposal(msData, \"changeRequiredDevSignatures\");\n            \n            // store new setting.\n            requiredDevSignatures_ = _howMany;\n        }\n    }\n\n    //^^^^^^^^^^^^^^^^^^^^^^^^^^^^^^^^^^^^^^^^^^^^^^^^^^^^^^^^^^^^^^^^^\n    // EXTERNAL FUNCTIONS \n    //^^^^^^^^^^^^^^^^^^^^^^^^^^^^^^^^^^^^^^^^^^^^^^^^^^^^^^^^^^^^^^^^^\n    function requiredSignatures() external view returns(uint256) {return(requiredSignatures_);}\n    function requiredDevSignatures() external view returns(uint256) {return(requiredDevSignatures_);}\n    function adminCount() external view returns(uint256) {return(adminCount_);}\n    function devCount() external view returns(uint256) {return(devCount_);}\n    function adminName(address _who) external view returns(bytes32) {return(admins_[_who].name);}\n    function isAdmin(address _who) external view returns(bool) {return(admins_[_who].isAdmin);}\n    function isDev(address _who) external view returns(bool) {return(admins_[_who].isDev);}\n}",
  "sourcePath": "/Users/fanchun/fomo3d_truffle1/contracts/TeamJust.sol",
  "compiler": {
    "name": "solc",
    "version": "0.4.24+commit.e67f0147.Emscripten.clang"
  },
  "schemaVersion": "2.0.1",
  "updatedAt": "2018-08-31T03:28:00.721Z"
}